{
  "contractName": "Faucet",
  "abi": [
    {
      "inputs": [
        {
          "internalType": "address",
          "name": "_token",
          "type": "address"
        },
        {
          "internalType": "uint256",
          "name": "_tokenLimit",
          "type": "uint256"
        },
        {
          "internalType": "uint256",
          "name": "_timeLimit",
          "type": "uint256"
        }
      ],
      "stateMutability": "nonpayable",
      "type": "constructor"
    },
    {
      "anonymous": false,
      "inputs": [
        {
          "indexed": true,
          "internalType": "address",
          "name": "previousOwner",
          "type": "address"
        },
        {
          "indexed": true,
          "internalType": "address",
          "name": "newOwner",
          "type": "address"
        }
      ],
      "name": "OwnershipTransferred",
      "type": "event"
    },
    {
      "anonymous": false,
      "inputs": [
        {
          "indexed": false,
          "internalType": "address",
          "name": "",
          "type": "address"
        }
      ],
      "name": "Sent",
      "type": "event"
    },
    {
      "inputs": [],
      "name": "owner",
      "outputs": [
        {
          "internalType": "address",
          "name": "",
          "type": "address"
        }
      ],
      "stateMutability": "view",
      "type": "function",
      "constant": true
    },
    {
      "inputs": [],
      "name": "renounceOwnership",
      "outputs": [],
      "stateMutability": "nonpayable",
      "type": "function"
    },
    {
      "inputs": [],
      "name": "timeLimit",
      "outputs": [
        {
          "internalType": "uint256",
          "name": "",
          "type": "uint256"
        }
      ],
      "stateMutability": "view",
      "type": "function",
      "constant": true
    },
    {
      "inputs": [],
      "name": "token",
      "outputs": [
        {
          "internalType": "address",
          "name": "",
          "type": "address"
        }
      ],
      "stateMutability": "view",
      "type": "function",
      "constant": true
    },
    {
      "inputs": [],
      "name": "tokenLimit",
      "outputs": [
        {
          "internalType": "uint256",
          "name": "",
          "type": "uint256"
        }
      ],
      "stateMutability": "view",
      "type": "function",
      "constant": true
    },
    {
      "inputs": [
        {
          "internalType": "address",
          "name": "newOwner",
          "type": "address"
        }
      ],
      "name": "transferOwnership",
      "outputs": [],
      "stateMutability": "nonpayable",
      "type": "function"
    },
    {
      "stateMutability": "payable",
      "type": "receive",
      "payable": true
    },
    {
      "inputs": [],
      "name": "request",
      "outputs": [],
      "stateMutability": "nonpayable",
      "type": "function"
    },
    {
      "inputs": [
        {
          "internalType": "uint256",
          "name": "newTokenLimit",
          "type": "uint256"
        }
      ],
      "name": "updateTokenLimit",
      "outputs": [],
      "stateMutability": "nonpayable",
      "type": "function"
    },
    {
      "inputs": [
        {
          "internalType": "uint256",
          "name": "newTimeLimit",
          "type": "uint256"
        }
      ],
      "name": "updateTimeLimit",
      "outputs": [],
      "stateMutability": "nonpayable",
      "type": "function"
    }
  ],
  "bytecode": "0x608060405234801561001057600080fd5b5060405161071438038061071483398101604081905261002f916100b4565b61003833610064565b600280546001600160a01b0319166001600160a01b0394909416939093179092556003556004556100f7565b600080546001600160a01b038381166001600160a01b0319831681178455604051919092169283917f8be0079c531659141344cd1fd0a4f28419497f9722a3daafe3b4186f6b6457e09190a35050565b6000806000606084860312156100c957600080fd5b83516001600160a01b03811681146100e057600080fd5b602085015160409095015190969495509392505050565b61060e806101066000396000f3fe60806040526004361061008a5760003560e01c80638da5cb5b116100595780638da5cb5b1461010b578063a312ac971461013d578063c08d1fe51461015d578063f2fde38b14610173578063fc0c546a1461019357600080fd5b8063338cdca11461009657806356c7627e146100ad5780635f93b125146100d6578063715018a6146100f657600080fd5b3661009157005b600080fd5b3480156100a257600080fd5b506100ab6101b3565b005b3480156100b957600080fd5b506100c360035481565b6040519081526020015b60405180910390f35b3480156100e257600080fd5b506100ab6100f13660046104fa565b61037b565b34801561010257600080fd5b506100ab6103aa565b34801561011757600080fd5b506000546001600160a01b03165b6040516001600160a01b0390911681526020016100cd565b34801561014957600080fd5b506100ab6101583660046104fa565b6103e0565b34801561016957600080fd5b506100c360045481565b34801561017f57600080fd5b506100ab61018e366004610513565b61040f565b34801561019f57600080fd5b50600254610125906001600160a01b031681565b600454336000908152600160205260409020546101d09042610543565b1161020f5760405162461bcd60e51b815260206004820152600a602482015269151a5b5948131a5b5a5d60b21b60448201526064015b60405180910390fd5b6003546002546040516370a0823160e01b81523360048201526001600160a01b03909116906370a0823190602401602060405180830381865afa15801561025a573d6000803e3d6000fd5b505050506040513d601f19601f8201168201806040525081019061027e9190610568565b106102b95760405162461bcd60e51b815260206004820152600b60248201526a151bdad95b88131a5b5a5d60aa1b6044820152606401610206565b3360008181526001602052604090819020429055600254600354915163a9059cbb60e01b8152600481019390935260248301919091526001600160a01b03169063a9059cbb906044016020604051808303816000875af1158015610321573d6000803e3d6000fd5b505050506040513d601f19601f820116820180604052508101906103459190610581565b506040513381527fad9eefc313550eb26658f0b86c43d562b31167aa21d08ad7c5989630d6f0cd1c9060200160405180910390a1565b6000546001600160a01b031633146103a55760405162461bcd60e51b8152600401610206906105a3565b600355565b6000546001600160a01b031633146103d45760405162461bcd60e51b8152600401610206906105a3565b6103de60006104aa565b565b6000546001600160a01b0316331461040a5760405162461bcd60e51b8152600401610206906105a3565b600455565b6000546001600160a01b031633146104395760405162461bcd60e51b8152600401610206906105a3565b6001600160a01b03811661049e5760405162461bcd60e51b815260206004820152602660248201527f4f776e61626c653a206e6577206f776e657220697320746865207a65726f206160448201526564647265737360d01b6064820152608401610206565b6104a7816104aa565b50565b600080546001600160a01b038381166001600160a01b0319831681178455604051919092169283917f8be0079c531659141344cd1fd0a4f28419497f9722a3daafe3b4186f6b6457e09190a35050565b60006020828403121561050c57600080fd5b5035919050565b60006020828403121561052557600080fd5b81356001600160a01b038116811461053c57600080fd5b9392505050565b60008282101561056357634e487b7160e01b600052601160045260246000fd5b500390565b60006020828403121561057a57600080fd5b5051919050565b60006020828403121561059357600080fd5b8151801515811461053c57600080fd5b6020808252818101527f4f776e61626c653a2063616c6c6572206973206e6f7420746865206f776e657260408201526060019056fea2646970667358221220f55bd4ded3a3f5bc727430a39e4f1d51a9680f8d0bcc5b7f356f11768d3be56d64736f6c634300080b0033",
  "immutableReferences": {},
  "source": "// SPDX-License-Identifier: MIT\npragma solidity >=0.4.22 <0.9.0;\n\nimport \"@openzeppelin/contracts/token/ERC20/IERC20.sol\";\nimport \"@openzeppelin/contracts/access/Ownable.sol\";\n\ncontract Faucet is Ownable {\n\n  mapping(address => uint) lastRequest;\n  event Sent(address);\n\n  address public token;\n  uint public tokenLimit;\n  uint public timeLimit;\n\n  constructor(address _token, uint _tokenLimit, uint _timeLimit){\n    token = _token;\n    tokenLimit = _tokenLimit;\n    timeLimit = _timeLimit;\n  }\n\n  function request() external {\n    require(block.timestamp - lastRequest[msg.sender] > timeLimit, \"Time Limit\");\n    require(IERC20(token).balanceOf(msg.sender) < tokenLimit, \"Token Limit\");\n    lastRequest[msg.sender] = block.timestamp;\n\n    IERC20(token).transfer(msg.sender, tokenLimit);\n    emit Sent(msg.sender);\n  }\n\n  function updateTokenLimit(uint newTokenLimit) external onlyOwner {\n    tokenLimit = newTokenLimit;\n  }\n\n  function updateTimeLimit(uint newTimeLimit) external onlyOwner {\n    timeLimit = newTimeLimit;\n  }\n\n  receive() external payable {}\n}\n",
  "sourcePath": "/Users/prasad/projects/chainscore/faucet/contracts/Faucet.sol",
  "compiler": {
    "name": "solc",
    "version": "0.8.11+commit.d7f03943.Emscripten.clang"
  },
  "schemaVersion": "3.4.3",
  "updatedAt": "2022-01-01T16:19:33.728Z",
  "networkType": "ethereum",
  "devdoc": {
    "kind": "dev",
    "methods": {
      "owner()": {
        "details": "Returns the address of the current owner."
      },
      "renounceOwnership()": {
        "details": "Leaves the contract without owner. It will not be possible to call `onlyOwner` functions anymore. Can only be called by the current owner. NOTE: Renouncing ownership will leave the contract without an owner, thereby removing any functionality that is only available to the owner."
      },
      "transferOwnership(address)": {
        "details": "Transfers ownership of the contract to a new account (`newOwner`). Can only be called by the current owner."
      }
    },
    "version": 1
  },
  "userdoc": {
    "kind": "user",
    "methods": {},
    "version": 1
  }
}